{
  "contractName": "MagenRouter",
  "abi": [
    {
      "inputs": [
        {
          "internalType": "address",
          "name": "_vault",
          "type": "address"
        },
        {
          "internalType": "address",
          "name": "_uniswapRouter",
          "type": "address"
        },
        {
          "internalType": "address",
          "name": "_pair",
          "type": "address"
        },
        {
          "internalType": "address",
          "name": "_usdc",
          "type": "address"
        },
        {
          "internalType": "address",
          "name": "_tokenSI",
          "type": "address"
        },
        {
          "internalType": "address",
          "name": "_tokenNO",
          "type": "address"
        }
      ],
      "stateMutability": "nonpayable",
      "type": "constructor"
    },
    {
      "inputs": [],
      "name": "pair",
      "outputs": [
        {
          "internalType": "address",
          "name": "",
          "type": "address"
        }
      ],
      "stateMutability": "view",
      "type": "function"
    },
    {
      "inputs": [],
      "name": "tokenNO",
      "outputs": [
        {
          "internalType": "contract IERC20",
          "name": "",
          "type": "address"
        }
      ],
      "stateMutability": "view",
      "type": "function"
    },
    {
      "inputs": [],
      "name": "tokenSI",
      "outputs": [
        {
          "internalType": "contract IERC20",
          "name": "",
          "type": "address"
        }
      ],
      "stateMutability": "view",
      "type": "function"
    },
    {
      "inputs": [],
      "name": "uniswapRouter",
      "outputs": [
        {
          "internalType": "contract IUniswapV2Router02",
          "name": "",
          "type": "address"
        }
      ],
      "stateMutability": "view",
      "type": "function"
    },
    {
      "inputs": [],
      "name": "usdc",
      "outputs": [
        {
          "internalType": "contract IERC20",
          "name": "",
          "type": "address"
        }
      ],
      "stateMutability": "view",
      "type": "function"
    },
    {
      "inputs": [],
      "name": "vault",
      "outputs": [
        {
          "internalType": "contract MagenVault",
          "name": "",
          "type": "address"
        }
      ],
      "stateMutability": "view",
      "type": "function"
    },
    {
      "inputs": [
        {
          "internalType": "uint256",
          "name": "usdcAmount",
          "type": "uint256"
        }
      ],
      "name": "addLiquidityZap",
      "outputs": [
        {
          "internalType": "uint256",
          "name": "liquidity",
          "type": "uint256"
        }
      ],
      "stateMutability": "nonpayable",
      "type": "function"
    },
    {
      "inputs": [
        {
          "internalType": "uint256",
          "name": "amount",
          "type": "uint256"
        },
        {
          "internalType": "uint256",
          "name": "",
          "type": "uint256"
        }
      ],
      "name": "initialize",
      "outputs": [],
      "stateMutability": "nonpayable",
      "type": "function"
    },
    {
      "inputs": [
        {
          "internalType": "uint256",
          "name": "usdcAmount",
          "type": "uint256"
        }
      ],
      "name": "buySI",
      "outputs": [],
      "stateMutability": "nonpayable",
      "type": "function"
    },
    {
      "inputs": [
        {
          "internalType": "uint256",
          "name": "tokenAmount",
          "type": "uint256"
        }
      ],
      "name": "sellSI",
      "outputs": [],
      "stateMutability": "nonpayable",
      "type": "function"
    },
    {
      "inputs": [
        {
          "internalType": "uint256",
          "name": "tokenAmount",
          "type": "uint256"
        }
      ],
      "name": "sellNO",
      "outputs": [],
      "stateMutability": "nonpayable",
      "type": "function"
    },
    {
      "inputs": [
        {
          "internalType": "uint256",
          "name": "lpAmount",
          "type": "uint256"
        }
      ],
      "name": "removeLiquidityZap",
      "outputs": [
        {
          "internalType": "uint256",
          "name": "usdcAmount",
          "type": "uint256"
        }
      ],
      "stateMutability": "nonpayable",
      "type": "function"
    },
    {
      "inputs": [
        {
          "internalType": "uint256",
          "name": "usdcAmount",
          "type": "uint256"
        }
      ],
      "name": "buyNO",
      "outputs": [],
      "stateMutability": "nonpayable",
      "type": "function"
    }
  ],
  "bytecode": "0x608060405234801562000010575f80fd5b5060405162001ee938038062001ee98339810160408190526200003391620000c1565b5f80546001600160a01b03199081166001600160a01b03988916179091556001805482169688169690961790955560028054861694871694909417909355600380548516928616929092179091556004805484169185169190911790556005805490921692169190911790556200013e565b80516001600160a01b0381168114620000bc575f80fd5b919050565b5f805f805f8060c08789031215620000d7575f80fd5b620000e287620000a5565b9550620000f260208801620000a5565b94506200010260408801620000a5565b93506200011260608801620000a5565b92506200012260808801620000a5565b91506200013260a08801620000a5565b90509295509295509295565b611d9d806200014c5f395ff3fe608060405234801561000f575f80fd5b50600436106100cb575f3560e01c80636ceec57011610088578063a8aa1b3111610063578063a8aa1b31146101a7578063e4a30116146101ba578063fbfa77cf146101cd578063ff1a277c146101df575f80fd5b80636ceec5701461016e5780636ef27a6314610181578063735de9f714610194575f80fd5b80631c09b721146100cf57806336c37fff146100ff5780633e413bee146101145780633ffc1be41461012757806341abb2e6146101485780635126ea781461015b575b5f80fd5b6004546100e2906001600160a01b031681565b6040516001600160a01b0390911681526020015b60405180910390f35b61011261010d36600461194f565b6101f2565b005b6003546100e2906001600160a01b031681565b61013a61013536600461194f565b610628565b6040519081526020016100f6565b61011261015636600461194f565b610a2a565b61013a61016936600461194f565b61107a565b61011261017c36600461194f565b6113bd565b61011261018f36600461194f565b6117a1565b6001546100e2906001600160a01b031681565b6002546100e2906001600160a01b031681565b6101126101c8366004611966565b6117e9565b5f546100e2906001600160a01b031681565b6005546100e2906001600160a01b031681565b6003546040516323b872dd60e01b81526001600160a01b03909116906323b872dd9061022690339030908690600401611986565b6020604051808303815f875af1158015610242573d5f803e3d5ffd5b505050506040513d601f19601f8201168201806040525081019061026691906119aa565b61028b5760405162461bcd60e51b8152600401610282906119d0565b60405180910390fd5b6003545f5460405163095ea7b360e01b81526001600160a01b039283169263095ea7b3926102c09291169085906004016119fe565b6020604051808303815f875af11580156102dc573d5f803e3d5ffd5b505050506040513d601f19601f8201168201806040525081019061030091906119aa565b505f5460405163140e25ad60e31b8152600481018390526001600160a01b039091169063a0712d68906024015f604051808303815f87803b158015610343575f80fd5b505af1158015610355573d5f803e3d5ffd5b50506005546040516370a0823160e01b81523060048201525f93506001600160a01b0390911691506370a0823190602401602060405180830381865afa1580156103a1573d5f803e3d5ffd5b505050506040513d601f19601f820116820180604052508101906103c59190611a17565b60055460015460405163095ea7b360e01b81529293506001600160a01b039182169263095ea7b3926103fd92169085906004016119fe565b6020604051808303815f875af1158015610419573d5f803e3d5ffd5b505050506040513d601f19601f8201168201806040525081019061043d91906119aa565b506040805160028082526060820183525f92602083019080368337505060055482519293506001600160a01b0316918391505f9061047d5761047d611a42565b6001600160a01b0392831660209182029290920101526004548251911690829060019081106104ae576104ae611a42565b6001600160a01b039283166020918202929092010152600154166338ed1739835f84306104dd4261012c611a6a565b6040518663ffffffff1660e01b81526004016104fd959493929190611a83565b5f604051808303815f875af1158015610518573d5f803e3d5ffd5b505050506040513d5f823e601f3d908101601f1916820160405261053f9190810190611af2565b50600480546040516370a0823160e01b815230928101929092525f916001600160a01b03909116906370a0823190602401602060405180830381865afa15801561058b573d5f803e3d5ffd5b505050506040513d601f19601f820116820180604052508101906105af9190611a17565b6004805460405163a9059cbb60e01b81529293506001600160a01b03169163a9059cbb916105e19133918691016119fe565b6020604051808303815f875af11580156105fd573d5f803e3d5ffd5b505050506040513d601f19601f8201168201806040525081019061062191906119aa565b5050505050565b6003546040516323b872dd60e01b81525f916001600160a01b0316906323b872dd9061065c90339030908790600401611986565b6020604051808303815f875af1158015610678573d5f803e3d5ffd5b505050506040513d601f19601f8201168201806040525081019061069c91906119aa565b6106b85760405162461bcd60e51b8152600401610282906119d0565b6003545f5460405163095ea7b360e01b81526001600160a01b039283169263095ea7b3926106ed9291169086906004016119fe565b6020604051808303815f875af1158015610709573d5f803e3d5ffd5b505050506040513d601f19601f8201168201806040525081019061072d91906119aa565b505f5460405163140e25ad60e31b8152600481018490526001600160a01b039091169063a0712d68906024015f604051808303815f87803b158015610770575f80fd5b505af1158015610782573d5f803e3d5ffd5b5050600480546040516370a0823160e01b815230928101929092525f93506001600160a01b031691506370a0823190602401602060405180830381865afa1580156107cf573d5f803e3d5ffd5b505050506040513d601f19601f820116820180604052508101906107f39190611a17565b6005546040516370a0823160e01b81523060048201529192505f916001600160a01b03909116906370a0823190602401602060405180830381865afa15801561083e573d5f803e3d5ffd5b505050506040513d601f19601f820116820180604052508101906108629190611a17565b6004805460015460405163095ea7b360e01b81529394506001600160a01b039182169363095ea7b39361089b93909216918791016119fe565b6020604051808303815f875af11580156108b7573d5f803e3d5ffd5b505050506040513d601f19601f820116820180604052508101906108db91906119aa565b5060055460015460405163095ea7b360e01b81526001600160a01b039283169263095ea7b3926109129291169085906004016119fe565b6020604051808303815f875af115801561092e573d5f803e3d5ffd5b505050506040513d601f19601f8201168201806040525081019061095291906119aa565b506001546004546005546001600160a01b039283169263e8e33700928116911685855f80336109834261012c611a6a565b60405160e08a901b6001600160e01b03191681526001600160a01b039889166004820152968816602488015260448701959095526064860193909352608485019190915260a484015290921660c482015260e4810191909152610104016060604051808303815f875af11580156109fc573d5f803e3d5ffd5b505050506040513d601f19601f82011682018060405250810190610a209190611bab565b9695505050505050565b5f8111610a665760405162461bcd60e51b815260206004820152600a6024820152690416d6f756e74203e20360b41b6044820152606401610282565b600480546040516323b872dd60e01b81526001600160a01b03909116916323b872dd91610a999133913091879101611986565b6020604051808303815f875af1158015610ab5573d5f803e3d5ffd5b505050506040513d601f19601f82011682018060405250810190610ad991906119aa565b610b175760405162461bcd60e51b815260206004820152600f60248201526e151c985b9cd9995c8819985a5b1959608a1b6044820152606401610282565b5f8060025f9054906101000a90046001600160a01b03166001600160a01b0316630902f1ac6040518163ffffffff1660e01b8152600401606060405180830381865afa158015610b69573d5f803e3d5ffd5b505050506040513d601f19601f82011682018060405250810190610b8d9190611bf1565b50915091505f60025f9054906101000a90046001600160a01b03166001600160a01b0316630dfe16816040518163ffffffff1660e01b8152600401602060405180830381865afa158015610be3573d5f803e3d5ffd5b505050506040513d601f19601f82011682018060405250810190610c079190611c3d565b6004549091505f9081906001600160a01b03808516911614610c2a578385610c2d565b84845b6001600160701b0391821693501690505f8282888381610c4d8585611c63565b610c579190611c8a565b90505f610c648584611cb0565b610c6d90611cdf565b90505f610c7b826004611cb0565b610c858480611cb0565b610c8f9190611c8a565b90505f610c9b826117f7565b90505f81610ca886611cdf565b610cb29190611c63565b9050610cbf600282611d0d565b6004805460015460405163095ea7b360e01b8152939c506001600160a01b039182169b5063095ea7b39a50610d0099501696508a95500192506119fe915050565b6020604051808303815f875af1158015610d1c573d5f803e3d5ffd5b505050506040513d601f19601f82011682018060405250810190610d4091906119aa565b506040805160028082526060820183525f92602083019080368337505060045482519293506001600160a01b0316918391505f90610d8057610d80611a42565b6001600160a01b039283166020918202929092010152600554825191169082906001908110610db157610db1611a42565b6001600160a01b039283166020918202929092010152600154166338ed1739835f8430610de04261012c611a6a565b6040518663ffffffff1660e01b8152600401610e00959493929190611a83565b5f604051808303815f875af1158015610e1b573d5f803e3d5ffd5b505050506040513d5f823e601f3d908101601f19168201604052610e429190810190611af2565b50600480546040516370a0823160e01b815230928101929092525f916001600160a01b03909116906370a0823190602401602060405180830381865afa158015610e8e573d5f803e3d5ffd5b505050506040513d601f19601f82011682018060405250810190610eb29190611a17565b6005546040516370a0823160e01b81523060048201529192505f916001600160a01b03909116906370a0823190602401602060405180830381865afa158015610efd573d5f803e3d5ffd5b505050506040513d601f19601f82011682018060405250810190610f219190611a17565b90505f818310610f315781610f33565b825b5f54604051630852cd8d60e31b8152600481018390529192506001600160a01b0316906342966c68906024015f604051808303815f87803b158015610f76575f80fd5b505af1158015610f88573d5f803e3d5ffd5b50506003546040516370a0823160e01b81523060048201525f93506001600160a01b0390911691506370a0823190602401602060405180830381865afa158015610fd4573d5f803e3d5ffd5b505050506040513d601f19601f82011682018060405250810190610ff89190611a17565b60035460405163a9059cbb60e01b81529192506001600160a01b03169063a9059cbb9061102b90339085906004016119fe565b6020604051808303815f875af1158015611047573d5f803e3d5ffd5b505050506040513d601f19601f8201168201806040525081019061106b91906119aa565b50505050505050505050505050565b5f8082116110b75760405162461bcd60e51b815260206004820152600a6024820152690416d6f756e74203e20360b41b6044820152606401610282565b6002546040516323b872dd60e01b81526001600160a01b03909116906323b872dd906110eb90339030908790600401611986565b6020604051808303815f875af1158015611107573d5f803e3d5ffd5b505050506040513d601f19601f8201168201806040525081019061112b91906119aa565b5060025460015460405163095ea7b360e01b81526001600160a01b039283169263095ea7b3926111629291169086906004016119fe565b6020604051808303815f875af115801561117e573d5f803e3d5ffd5b505050506040513d601f19601f820116820180604052508101906111a291906119aa565b506001546004546005545f9283926001600160a01b039182169263baa2abde929182169116878580306111d74261012c611a6a565b60405160e089901b6001600160e01b03191681526001600160a01b039788166004820152958716602487015260448601949094526064850192909252608484015290921660a482015260c481019190915260e40160408051808303815f875af1158015611246573d5f803e3d5ffd5b505050506040513d601f19601f8201168201806040525081019061126a9190611d45565b915091505f81831061127c578161127e565b825b5f54604051630852cd8d60e31b8152600481018390529192506001600160a01b0316906342966c68906024015f604051808303815f87803b1580156112c1575f80fd5b505af11580156112d3573d5f803e3d5ffd5b50506003546040516370a0823160e01b81523060048201526001600160a01b0390911692506370a082319150602401602060405180830381865afa15801561131d573d5f803e3d5ffd5b505050506040513d601f19601f820116820180604052508101906113419190611a17565b60035460405163a9059cbb60e01b81529195506001600160a01b03169063a9059cbb9061137490339088906004016119fe565b6020604051808303815f875af1158015611390573d5f803e3d5ffd5b505050506040513d601f19601f820116820180604052508101906113b491906119aa565b50505050919050565b6003546040516323b872dd60e01b81526001600160a01b03909116906323b872dd906113f190339030908690600401611986565b6020604051808303815f875af115801561140d573d5f803e3d5ffd5b505050506040513d601f19601f8201168201806040525081019061143191906119aa565b61144d5760405162461bcd60e51b8152600401610282906119d0565b6003545f5460405163095ea7b360e01b81526001600160a01b039283169263095ea7b3926114829291169085906004016119fe565b6020604051808303815f875af115801561149e573d5f803e3d5ffd5b505050506040513d601f19601f820116820180604052508101906114c291906119aa565b505f5460405163140e25ad60e31b8152600481018390526001600160a01b039091169063a0712d68906024015f604051808303815f87803b158015611505575f80fd5b505af1158015611517573d5f803e3d5ffd5b5050600480546040516370a0823160e01b815230928101929092525f93506001600160a01b031691506370a0823190602401602060405180830381865afa158015611564573d5f803e3d5ffd5b505050506040513d601f19601f820116820180604052508101906115889190611a17565b6004805460015460405163095ea7b360e01b81529394506001600160a01b039182169363095ea7b3936115c193909216918691016119fe565b6020604051808303815f875af11580156115dd573d5f803e3d5ffd5b505050506040513d601f19601f8201168201806040525081019061160191906119aa565b506040805160028082526060820183525f92602083019080368337505060045482519293506001600160a01b0316918391505f9061164157611641611a42565b6001600160a01b03928316602091820292909201015260055482519116908290600190811061167257611672611a42565b6001600160a01b039283166020918202929092010152600154166338ed1739835f84306116a14261012c611a6a565b6040518663ffffffff1660e01b81526004016116c1959493929190611a83565b5f604051808303815f875af11580156116dc573d5f803e3d5ffd5b505050506040513d5f823e601f3d908101601f191682016040526117039190810190611af2565b506005546040516370a0823160e01b81523060048201525f916001600160a01b0316906370a0823190602401602060405180830381865afa15801561174a573d5f803e3d5ffd5b505050506040513d601f19601f8201168201806040525081019061176e9190611a17565b60055460405163a9059cbb60e01b81529192506001600160a01b03169063a9059cbb906105e190339085906004016119fe565b60405162461bcd60e51b815260206004820152601c60248201527f4e6f7420696d706c656d656e7465642079657420666f722064656d6f000000006044820152606401610282565b6117f282610628565b505050565b5f60018211611804575090565b816001600160801b821061181d5760809190911c9060401b5b6801000000000000000082106118385760409190911c9060201b5b640100000000821061184f5760209190911c9060101b5b6201000082106118645760109190911c9060081b5b61010082106118785760089190911c9060041b5b6010821061188b5760049190911c9060021b5b600482106118975760011b5b600302600190811c908185816118af576118af611cf9565b048201901c905060018185816118c7576118c7611cf9565b048201901c905060018185816118df576118df611cf9565b048201901c905060018185816118f7576118f7611cf9565b048201901c9050600181858161190f5761190f611cf9565b048201901c9050600181858161192757611927611cf9565b048201901c905061194681858161194057611940611cf9565b04821190565b90039392505050565b5f6020828403121561195f575f80fd5b5035919050565b5f8060408385031215611977575f80fd5b50508035926020909101359150565b6001600160a01b039384168152919092166020820152604081019190915260600190565b5f602082840312156119ba575f80fd5b815180151581146119c9575f80fd5b9392505050565b6020808252601490820152731554d110c81d1c985b9cd9995c8819985a5b195960621b604082015260600190565b6001600160a01b03929092168252602082015260400190565b5f60208284031215611a27575f80fd5b5051919050565b634e487b7160e01b5f52604160045260245ffd5b634e487b7160e01b5f52603260045260245ffd5b634e487b7160e01b5f52601160045260245ffd5b80820180821115611a7d57611a7d611a56565b92915050565b5f60a082018783526020878185015260a0604085015281875180845260c08601915082890193505f5b81811015611ad15784516001600160a01b031683529383019391830191600101611aac565b50506001600160a01b03969096166060850152505050608001529392505050565b5f6020808385031215611b03575f80fd5b825167ffffffffffffffff80821115611b1a575f80fd5b818501915085601f830112611b2d575f80fd5b815181811115611b3f57611b3f611a2e565b8060051b604051601f19603f83011681018181108582111715611b6457611b64611a2e565b604052918252848201925083810185019188831115611b81575f80fd5b938501935b82851015611b9f57845184529385019392850192611b86565b98975050505050505050565b5f805f60608486031215611bbd575f80fd5b8351925060208401519150604084015190509250925092565b80516001600160701b0381168114611bec575f80fd5b919050565b5f805f60608486031215611c03575f80fd5b611c0c84611bd6565b9250611c1a60208501611bd6565b9150604084015163ffffffff81168114611c32575f80fd5b809150509250925092565b5f60208284031215611c4d575f80fd5b81516001600160a01b03811681146119c9575f80fd5b8082018281125f831280158216821582161715611c8257611c82611a56565b505092915050565b8181035f831280158383131683831282161715611ca957611ca9611a56565b5092915050565b8082025f8212600160ff1b84141615611ccb57611ccb611a56565b8181058314821517611a7d57611a7d611a56565b5f600160ff1b8201611cf357611cf3611a56565b505f0390565b634e487b7160e01b5f52601260045260245ffd5b5f82611d2757634e487b7160e01b5f52601260045260245ffd5b600160ff1b82145f1984141615611d4057611d40611a56565b500590565b5f8060408385031215611d56575f80fd5b50508051602090910151909290915056fea26469706673582212207df436d950e9d7534719484fe844f5b23cd9f69515613361565d9a9e0022cdd164736f6c63430008150033",
  "immutableReferences": {},
  "source": "// SPDX-License-Identifier: MIT\r\npragma solidity ^0.8.0;\r\n\r\nimport \"@openzeppelin/contracts/token/ERC20/IERC20.sol\";\r\nimport \"@openzeppelin/contracts/utils/math/Math.sol\";\r\nimport \"./MagenVault.sol\";\r\nimport \"./OutcomeToken.sol\";\r\nimport \"./interfaces/IUniswapV2.sol\";\r\n\r\ncontract MagenRouter {\r\n    MagenVault public vault;\r\n    IUniswapV2Router02 public uniswapRouter;\r\n    address public pair;\r\n    \r\n    IERC20 public usdc;\r\n    IERC20 public tokenSI;\r\n    IERC20 public tokenNO;\r\n\r\n    constructor(address _vault, address _uniswapRouter, address _pair, address _usdc, address _tokenSI, address _tokenNO) {\r\n        vault = MagenVault(_vault);\r\n        uniswapRouter = IUniswapV2Router02(_uniswapRouter);\r\n        pair = _pair;\r\n        usdc = IERC20(_usdc);\r\n        tokenSI = IERC20(_tokenSI);\r\n        tokenNO = IERC20(_tokenNO);\r\n    }\r\n\r\n    // Zap: USDC -> Mint SI/NO -> Add Liquidity to Uniswap -> Return LP Tokens\r\n    function addLiquidityZap(uint256 usdcAmount) public returns (uint liquidity) {\r\n        require(usdc.transferFrom(msg.sender, address(this), usdcAmount), \"USDC transfer failed\");\r\n        \r\n        // Approve Vault to spend USDC\r\n        usdc.approve(address(vault), usdcAmount);\r\n        vault.mint(usdcAmount);\r\n\r\n        // Router now has SI and NO\r\n        uint256 balSI = tokenSI.balanceOf(address(this));\r\n        uint256 balNO = tokenNO.balanceOf(address(this));\r\n\r\n        // Approve Uniswap Router\r\n        tokenSI.approve(address(uniswapRouter), balSI);\r\n        tokenNO.approve(address(uniswapRouter), balNO);\r\n\r\n        // Add Liquidity\r\n        // min amounts set to 0 for simplicity in this example/MVP\r\n        // but crucial for production slippage protection\r\n        (,, liquidity) = uniswapRouter.addLiquidity(\r\n            address(tokenSI),\r\n            address(tokenNO),\r\n            balSI,\r\n            balNO,\r\n            0, // amountAMin\r\n            0, // amountBMin\r\n            msg.sender, // LP tokens go to user\r\n            block.timestamp + 300\r\n        );\r\n    }\r\n    \r\n    function initialize(uint256 amount, uint256 /* risk */) external {\r\n        addLiquidityZap(amount);\r\n    }\r\n\r\n    // Buy SI: Mint SI+NO, Sell NO -> SI, Return Total SI\r\n    function buySI(uint256 usdcAmount) external {\r\n        require(usdc.transferFrom(msg.sender, address(this), usdcAmount), \"USDC transfer failed\");\r\n        \r\n        usdc.approve(address(vault), usdcAmount);\r\n        vault.mint(usdcAmount);\r\n        \r\n        uint256 noBalance = tokenNO.balanceOf(address(this));\r\n        tokenNO.approve(address(uniswapRouter), noBalance);\r\n        \r\n        // Path: NO -> SI\r\n        address[] memory path = new address[](2);\r\n        path[0] = address(tokenNO);\r\n        path[1] = address(tokenSI);\r\n        \r\n        uniswapRouter.swapExactTokensForTokens(\r\n            noBalance,\r\n            0, // amountOutMin\r\n            path,\r\n            address(this), // Router receives SI first\r\n            block.timestamp + 300\r\n        );\r\n        \r\n        // Send all SI to user\r\n        uint256 siBalance = tokenSI.balanceOf(address(this));\r\n        tokenSI.transfer(msg.sender, siBalance);\r\n    }\r\n\r\n    // Sell SI: Best effort swap SI -> NO to balance, then Burn\r\n    // In V2, optimal swap amount is harder to calc on-chain due to 0.3% fee + reserves\r\n    // For MVP, we can iterate or use a simplified formula:\r\n    // To reach R_si = R_no * (new_reserves), we swap.\r\n    // However, simplest is: Swap half? No.\r\n    // We stick to the quadratic formula logic, fetching reserves from pair.\r\n    \r\n    function sellSI(uint256 tokenAmount) external {\r\n        require(tokenAmount > 0, \"Amount > 0\");\r\n        require(tokenSI.transferFrom(msg.sender, address(this), tokenAmount), \"Transfer failed\");\r\n\r\n        // Get Reserves\r\n        (uint112 _reserve0, uint112 _reserve1,) = IUniswapV2Pair(pair).getReserves();\r\n        address _token0 = IUniswapV2Pair(pair).token0();\r\n        \r\n        (uint256 reserveSI, uint256 reserveNO) = (address(tokenSI) == _token0) \r\n            ? (_reserve0, _reserve1) \r\n            : (_reserve1, _reserve0);\r\n            \r\n        // Quadratic Formula for Optimal Swap Amount\r\n        // x = (-b + sqrt(b^2 - 4ac)) / 2\r\n        // b = (R_no + R_si) - T\r\n        // c = -(T * R_si)\r\n        \r\n        uint256 amountToSwap;\r\n        {\r\n            int256 R_si = int256(reserveSI);\r\n            int256 R_no = int256(reserveNO);\r\n            int256 T = int256(tokenAmount);\r\n            \r\n            int256 b = (R_no + R_si) - T;\r\n            int256 c = -(T * R_si);\r\n            \r\n            uint256 D = uint256(b * b - (4 * c));\r\n            uint256 sqrtD = Math.sqrt(D);\r\n            \r\n            // Result is positive, safe to cast\r\n            int256 num = -b + int256(sqrtD);\r\n            amountToSwap = uint256(num / 2);\r\n        }\r\n\r\n        tokenSI.approve(address(uniswapRouter), amountToSwap);\r\n        \r\n        address[] memory path = new address[](2);\r\n        path[0] = address(tokenSI);\r\n        path[1] = address(tokenNO);\r\n\r\n        uniswapRouter.swapExactTokensForTokens(\r\n            amountToSwap,\r\n            0, // Accept any amount for now (MVP)\r\n            path,\r\n            address(this),\r\n            block.timestamp + 300\r\n        );\r\n\r\n        uint256 balSI = tokenSI.balanceOf(address(this));\r\n        uint256 balNO = tokenNO.balanceOf(address(this));\r\n        uint256 burnAmount = balSI < balNO ? balSI : balNO;\r\n\r\n        vault.burn(burnAmount);\r\n\r\n        // Return USDC\r\n        uint256 usdcBal = usdc.balanceOf(address(this));\r\n        usdc.transfer(msg.sender, usdcBal);\r\n    }\r\n\r\n    function sellNO(uint256 tokenAmount) external {\r\n         // Symmetric logic for NO\r\n         // ...\r\n         revert(\"Not implemented yet for demo\");\r\n    }\r\n    \r\n    // Zap Out: LP -> Remove Liq -> Burn SI/NO -> Return USDC\r\n    function removeLiquidityZap(uint256 lpAmount) external returns (uint256 usdcAmount) {\r\n        require(lpAmount > 0, \"Amount > 0\");\r\n        \r\n        // Transfer LP from user\r\n        IUniswapV2Pair(pair).transferFrom(msg.sender, address(this), lpAmount);\r\n        \r\n        // Approve Router to remove liq\r\n        IUniswapV2Pair(pair).approve(address(uniswapRouter), lpAmount);\r\n        \r\n        // Remove Liquidity\r\n        (uint256 amountSI, uint256 amountNO) = uniswapRouter.removeLiquidity(\r\n            address(tokenSI),\r\n            address(tokenNO),\r\n            lpAmount,\r\n            0, // minSI\r\n            0, // minNO\r\n            address(this), // Router keeps tokens to burn\r\n            block.timestamp + 300\r\n        );\r\n        \r\n        // Burn smallest amount to be safe (should be equal if 50/50, but uniswap fees might skew)\r\n        // Just burn whatever we got.\r\n        // Vault burn requires equal SI/NO? \r\n        // Vault.burn(amount) burns `amount` of SI and `amount` of NO.\r\n        // We need to burn min(amountSI, amountNO).\r\n        \r\n        uint256 burnAmt = amountSI < amountNO ? amountSI : amountNO;\r\n        vault.burn(burnAmt);\r\n        \r\n        // Return USDC\r\n        usdcAmount = usdc.balanceOf(address(this));\r\n        usdc.transfer(msg.sender, usdcAmount);\r\n        \r\n        // Leftover dust remains in Router (could flush to user, but ignoring for MVP)\r\n    }\r\n\r\n    // Fallback for buyNO\r\n    function buyNO(uint256 usdcAmount) external {\r\n        require(usdc.transferFrom(msg.sender, address(this), usdcAmount), \"USDC transfer failed\");\r\n        usdc.approve(address(vault), usdcAmount);\r\n        vault.mint(usdcAmount);\r\n        \r\n        uint256 siBalance = tokenSI.balanceOf(address(this));\r\n        tokenSI.approve(address(uniswapRouter), siBalance);\r\n        \r\n        address[] memory path = new address[](2);\r\n        path[0] = address(tokenSI);\r\n        path[1] = address(tokenNO);\r\n        \r\n        uniswapRouter.swapExactTokensForTokens(\r\n            siBalance,\r\n            0,\r\n            path,\r\n            address(this),\r\n            block.timestamp + 300\r\n        );\r\n        \r\n        uint256 noBalance = tokenNO.balanceOf(address(this));\r\n        tokenNO.transfer(msg.sender, noBalance);\r\n    }\r\n}\r\n",
  "sourcePath": "C:\\Users\\hanti\\Desktop\\Magen-Protocol\\contracts\\MagenRouter.sol",
  "compiler": {
    "name": "solc",
    "version": "0.8.21+commit.d9974bed.Emscripten.clang"
  },
  "schemaVersion": "3.4.16",
  "updatedAt": "2026-02-10T02:34:45.387Z",
  "devdoc": {
    "kind": "dev",
    "methods": {},
    "version": 1
  },
  "userdoc": {
    "kind": "user",
    "methods": {},
    "version": 1
  }
}