{
  "contractName": "MockUniswapV2Pair",
  "abi": [
    {
      "inputs": [],
      "stateMutability": "nonpayable",
      "type": "constructor"
    },
    {
      "inputs": [
        {
          "internalType": "address",
          "name": "spender",
          "type": "address"
        },
        {
          "internalType": "uint256",
          "name": "allowance",
          "type": "uint256"
        },
        {
          "internalType": "uint256",
          "name": "needed",
          "type": "uint256"
        }
      ],
      "name": "ERC20InsufficientAllowance",
      "type": "error"
    },
    {
      "inputs": [
        {
          "internalType": "address",
          "name": "sender",
          "type": "address"
        },
        {
          "internalType": "uint256",
          "name": "balance",
          "type": "uint256"
        },
        {
          "internalType": "uint256",
          "name": "needed",
          "type": "uint256"
        }
      ],
      "name": "ERC20InsufficientBalance",
      "type": "error"
    },
    {
      "inputs": [
        {
          "internalType": "address",
          "name": "approver",
          "type": "address"
        }
      ],
      "name": "ERC20InvalidApprover",
      "type": "error"
    },
    {
      "inputs": [
        {
          "internalType": "address",
          "name": "receiver",
          "type": "address"
        }
      ],
      "name": "ERC20InvalidReceiver",
      "type": "error"
    },
    {
      "inputs": [
        {
          "internalType": "address",
          "name": "sender",
          "type": "address"
        }
      ],
      "name": "ERC20InvalidSender",
      "type": "error"
    },
    {
      "inputs": [
        {
          "internalType": "address",
          "name": "spender",
          "type": "address"
        }
      ],
      "name": "ERC20InvalidSpender",
      "type": "error"
    },
    {
      "anonymous": false,
      "inputs": [
        {
          "indexed": true,
          "internalType": "address",
          "name": "owner",
          "type": "address"
        },
        {
          "indexed": true,
          "internalType": "address",
          "name": "spender",
          "type": "address"
        },
        {
          "indexed": false,
          "internalType": "uint256",
          "name": "value",
          "type": "uint256"
        }
      ],
      "name": "Approval",
      "type": "event"
    },
    {
      "anonymous": false,
      "inputs": [
        {
          "indexed": true,
          "internalType": "address",
          "name": "from",
          "type": "address"
        },
        {
          "indexed": true,
          "internalType": "address",
          "name": "to",
          "type": "address"
        },
        {
          "indexed": false,
          "internalType": "uint256",
          "name": "value",
          "type": "uint256"
        }
      ],
      "name": "Transfer",
      "type": "event"
    },
    {
      "inputs": [
        {
          "internalType": "address",
          "name": "owner",
          "type": "address"
        },
        {
          "internalType": "address",
          "name": "spender",
          "type": "address"
        }
      ],
      "name": "allowance",
      "outputs": [
        {
          "internalType": "uint256",
          "name": "",
          "type": "uint256"
        }
      ],
      "stateMutability": "view",
      "type": "function"
    },
    {
      "inputs": [
        {
          "internalType": "address",
          "name": "spender",
          "type": "address"
        },
        {
          "internalType": "uint256",
          "name": "value",
          "type": "uint256"
        }
      ],
      "name": "approve",
      "outputs": [
        {
          "internalType": "bool",
          "name": "",
          "type": "bool"
        }
      ],
      "stateMutability": "nonpayable",
      "type": "function"
    },
    {
      "inputs": [
        {
          "internalType": "address",
          "name": "account",
          "type": "address"
        }
      ],
      "name": "balanceOf",
      "outputs": [
        {
          "internalType": "uint256",
          "name": "",
          "type": "uint256"
        }
      ],
      "stateMutability": "view",
      "type": "function"
    },
    {
      "inputs": [],
      "name": "decimals",
      "outputs": [
        {
          "internalType": "uint8",
          "name": "",
          "type": "uint8"
        }
      ],
      "stateMutability": "view",
      "type": "function"
    },
    {
      "inputs": [],
      "name": "name",
      "outputs": [
        {
          "internalType": "string",
          "name": "",
          "type": "string"
        }
      ],
      "stateMutability": "view",
      "type": "function"
    },
    {
      "inputs": [],
      "name": "symbol",
      "outputs": [
        {
          "internalType": "string",
          "name": "",
          "type": "string"
        }
      ],
      "stateMutability": "view",
      "type": "function"
    },
    {
      "inputs": [],
      "name": "token0",
      "outputs": [
        {
          "internalType": "address",
          "name": "",
          "type": "address"
        }
      ],
      "stateMutability": "view",
      "type": "function"
    },
    {
      "inputs": [],
      "name": "token1",
      "outputs": [
        {
          "internalType": "address",
          "name": "",
          "type": "address"
        }
      ],
      "stateMutability": "view",
      "type": "function"
    },
    {
      "inputs": [],
      "name": "totalSupply",
      "outputs": [
        {
          "internalType": "uint256",
          "name": "",
          "type": "uint256"
        }
      ],
      "stateMutability": "view",
      "type": "function"
    },
    {
      "inputs": [
        {
          "internalType": "address",
          "name": "to",
          "type": "address"
        },
        {
          "internalType": "uint256",
          "name": "value",
          "type": "uint256"
        }
      ],
      "name": "transfer",
      "outputs": [
        {
          "internalType": "bool",
          "name": "",
          "type": "bool"
        }
      ],
      "stateMutability": "nonpayable",
      "type": "function"
    },
    {
      "inputs": [
        {
          "internalType": "address",
          "name": "from",
          "type": "address"
        },
        {
          "internalType": "address",
          "name": "to",
          "type": "address"
        },
        {
          "internalType": "uint256",
          "name": "value",
          "type": "uint256"
        }
      ],
      "name": "transferFrom",
      "outputs": [
        {
          "internalType": "bool",
          "name": "",
          "type": "bool"
        }
      ],
      "stateMutability": "nonpayable",
      "type": "function"
    },
    {
      "inputs": [
        {
          "internalType": "address",
          "name": "_token0",
          "type": "address"
        },
        {
          "internalType": "address",
          "name": "_token1",
          "type": "address"
        }
      ],
      "name": "initialize",
      "outputs": [],
      "stateMutability": "nonpayable",
      "type": "function"
    },
    {
      "inputs": [],
      "name": "getReserves",
      "outputs": [
        {
          "internalType": "uint112",
          "name": "",
          "type": "uint112"
        },
        {
          "internalType": "uint112",
          "name": "",
          "type": "uint112"
        },
        {
          "internalType": "uint32",
          "name": "",
          "type": "uint32"
        }
      ],
      "stateMutability": "view",
      "type": "function"
    },
    {
      "inputs": [
        {
          "internalType": "address",
          "name": "to",
          "type": "address"
        }
      ],
      "name": "mint",
      "outputs": [
        {
          "internalType": "uint256",
          "name": "liquidity",
          "type": "uint256"
        }
      ],
      "stateMutability": "nonpayable",
      "type": "function"
    },
    {
      "inputs": [
        {
          "internalType": "address",
          "name": "to",
          "type": "address"
        }
      ],
      "name": "burn",
      "outputs": [
        {
          "internalType": "uint256",
          "name": "amount0",
          "type": "uint256"
        },
        {
          "internalType": "uint256",
          "name": "amount1",
          "type": "uint256"
        }
      ],
      "stateMutability": "nonpayable",
      "type": "function"
    },
    {
      "inputs": [
        {
          "internalType": "uint256",
          "name": "amount0Out",
          "type": "uint256"
        },
        {
          "internalType": "uint256",
          "name": "amount1Out",
          "type": "uint256"
        },
        {
          "internalType": "address",
          "name": "to",
          "type": "address"
        },
        {
          "internalType": "bytes",
          "name": "",
          "type": "bytes"
        }
      ],
      "name": "swap",
      "outputs": [],
      "stateMutability": "nonpayable",
      "type": "function"
    }
  ],
  "bytecode": "0x608060405234801562000010575f80fd5b506040518060400160405280600a8152602001692ab734b9bbb0b8102b1960b11b815250604051806040016040528060068152602001652aa72496ab1960d11b81525081600390816200006491906200011c565b5060046200007382826200011c565b505050620001e4565b634e487b7160e01b5f52604160045260245ffd5b600181811c90821680620000a557607f821691505b602082108103620000c457634e487b7160e01b5f52602260045260245ffd5b50919050565b601f82111562000117575f81815260208120601f850160051c81016020861015620000f25750805b601f850160051c820191505b818110156200011357828155600101620000fe565b5050505b505050565b81516001600160401b038111156200013857620001386200007c565b620001508162000149845462000090565b84620000ca565b602080601f83116001811462000186575f84156200016e5750858301515b5f19600386901b1c1916600185901b17855562000113565b5f85815260208120601f198616915b82811015620001b65788860151825594840194600190910190840162000195565b5085821015620001d457878501515f19600388901b60f8161c191681555b5050505050600190811b01905550565b61109e80620001f25f395ff3fe608060405234801561000f575f80fd5b50600436106100fb575f3560e01c8063485cc9551161009357806395d89b411161006357806395d89b411461028e578063a9059cbb14610296578063d21220a7146102a9578063dd62ed3e146102bc575f80fd5b8063485cc955146101ef5780636a6278421461022b57806370a082311461023e57806389afcb4414610266575f80fd5b80630dfe1681116100ce5780630dfe16811461019057806318160ddd146101bb57806323b872dd146101cd578063313ce567146101e0575f80fd5b8063022c0d9f146100ff57806306fdde03146101145780630902f1ac14610132578063095ea7b31461016d575b5f80fd5b61011261010d366004610e01565b6102f4565b005b61011c61050d565b6040516101299190610e8d565b60405180910390f35b600754604080516001600160701b038084168252600160701b8404166020820152600160e01b90920463ffffffff1690820152606001610129565b61018061017b366004610ed8565b61059d565b6040519015158152602001610129565b6005546101a3906001600160a01b031681565b6040516001600160a01b039091168152602001610129565b6002545b604051908152602001610129565b6101806101db366004610f00565b6105b6565b60405160128152602001610129565b6101126101fd366004610f39565b600580546001600160a01b039384166001600160a01b03199182161790915560068054929093169116179055565b6101bf610239366004610f6a565b6105d9565b6101bf61024c366004610f6a565b6001600160a01b03165f9081526020819052604090205490565b610279610274366004610f6a565b610738565b60408051928352602083019190915201610129565b61011c610a76565b6101806102a4366004610ed8565b610a85565b6006546101a3906001600160a01b031681565b6101bf6102ca366004610f39565b6001600160a01b039182165f90815260016020908152604080832093909416825291909152205490565b84156103705760055460405163a9059cbb60e01b81526001600160a01b038581166004830152602482018890529091169063a9059cbb906044016020604051808303815f875af115801561034a573d5f803e3d5ffd5b505050506040513d601f19601f8201168201806040525081019061036e9190610f8a565b505b83156103ec5760065460405163a9059cbb60e01b81526001600160a01b038581166004830152602482018790529091169063a9059cbb906044016020604051808303815f875af11580156103c6573d5f803e3d5ffd5b505050506040513d601f19601f820116820180604052508101906103ea9190610f8a565b505b6005546040516370a0823160e01b81523060048201526001600160a01b03909116906370a0823190602401602060405180830381865afa158015610432573d5f803e3d5ffd5b505050506040513d601f19601f820116820180604052508101906104569190610fa9565b600780546001600160701b0319166001600160701b03929092169190911790556006546040516370a0823160e01b81523060048201526001600160a01b03909116906370a0823190602401602060405180830381865afa1580156104bc573d5f803e3d5ffd5b505050506040513d601f19601f820116820180604052508101906104e09190610fa9565b6007600e6101000a8154816001600160701b0302191690836001600160701b031602179055505050505050565b60606003805461051c90610fc0565b80601f016020809104026020016040519081016040528092919081815260200182805461054890610fc0565b80156105935780601f1061056a57610100808354040283529160200191610593565b820191905f5260205f20905b81548152906001019060200180831161057657829003601f168201915b5050505050905090565b5f336105aa818585610a92565b60019150505b92915050565b5f336105c3858285610aa4565b6105ce858585610b25565b506001949350505050565b6005546040516370a0823160e01b81523060048201525f9182916001600160a01b03909116906370a0823190602401602060405180830381865afa158015610623573d5f803e3d5ffd5b505050506040513d601f19601f820116820180604052508101906106479190610fa9565b6006546040516370a0823160e01b81523060048201529192505f916001600160a01b03909116906370a0823190602401602060405180830381865afa158015610692573d5f803e3d5ffd5b505050506040513d601f19601f820116820180604052508101906106b69190610fa9565b6007549091505f906106d1906001600160701b03168461100c565b6007549091505f906106f390600160701b90046001600160701b03168461100c565b90508194506107028686610b82565b5050600780546001600160701b03928316600160701b026001600160e01b03199091169290931691909117919091179055919050565b6005546040516370a0823160e01b81523060048201525f91829182916001600160a01b0316906370a0823190602401602060405180830381865afa158015610782573d5f803e3d5ffd5b505050506040513d601f19601f820116820180604052508101906107a69190610fa9565b6006546040516370a0823160e01b81523060048201529192505f916001600160a01b03909116906370a0823190602401602060405180830381865afa1580156107f1573d5f803e3d5ffd5b505050506040513d601f19601f820116820180604052508101906108159190610fa9565b305f9081526020819052604090205460025491925090610835848361101f565b61083f9190611036565b945061084a60025490565b610854838361101f565b61085e9190611036565b935061086a3082610bba565b60055460405163a9059cbb60e01b81526001600160a01b038881166004830152602482018890529091169063a9059cbb906044016020604051808303815f875af11580156108ba573d5f803e3d5ffd5b505050506040513d601f19601f820116820180604052508101906108de9190610f8a565b5060065460405163a9059cbb60e01b81526001600160a01b038881166004830152602482018790529091169063a9059cbb906044016020604051808303815f875af115801561092f573d5f803e3d5ffd5b505050506040513d601f19601f820116820180604052508101906109539190610f8a565b506005546040516370a0823160e01b81523060048201526001600160a01b03909116906370a0823190602401602060405180830381865afa15801561099a573d5f803e3d5ffd5b505050506040513d601f19601f820116820180604052508101906109be9190610fa9565b600780546001600160701b0319166001600160701b03929092169190911790556006546040516370a0823160e01b81523060048201526001600160a01b03909116906370a0823190602401602060405180830381865afa158015610a24573d5f803e3d5ffd5b505050506040513d601f19601f82011682018060405250810190610a489190610fa9565b6007600e6101000a8154816001600160701b0302191690836001600160701b03160217905550505050915091565b60606004805461051c90610fc0565b5f336105aa818585610b25565b610a9f8383836001610bee565b505050565b6001600160a01b038381165f908152600160209081526040808320938616835292905220545f19811015610b1f5781811015610b1157604051637dc7a0d960e11b81526001600160a01b038416600482015260248101829052604481018390526064015b60405180910390fd5b610b1f84848484035f610bee565b50505050565b6001600160a01b038316610b4e57604051634b637e8f60e11b81525f6004820152602401610b08565b6001600160a01b038216610b775760405163ec442f0560e01b81525f6004820152602401610b08565b610a9f838383610cc0565b6001600160a01b038216610bab5760405163ec442f0560e01b81525f6004820152602401610b08565b610bb65f8383610cc0565b5050565b6001600160a01b038216610be357604051634b637e8f60e11b81525f6004820152602401610b08565b610bb6825f83610cc0565b6001600160a01b038416610c175760405163e602df0560e01b81525f6004820152602401610b08565b6001600160a01b038316610c4057604051634a1406b160e11b81525f6004820152602401610b08565b6001600160a01b038085165f9081526001602090815260408083209387168352929052208290558015610b1f57826001600160a01b0316846001600160a01b03167f8c5be1e5ebec7d5bd14f71427d1e84f3dd0314c0f7b2291e5b200ac8c7c3b92584604051610cb291815260200190565b60405180910390a350505050565b6001600160a01b038316610cea578060025f828254610cdf9190611055565b90915550610d5a9050565b6001600160a01b0383165f9081526020819052604090205481811015610d3c5760405163391434e360e21b81526001600160a01b03851660048201526024810182905260448101839052606401610b08565b6001600160a01b0384165f9081526020819052604090209082900390555b6001600160a01b038216610d7657600280548290039055610d94565b6001600160a01b0382165f9081526020819052604090208054820190555b816001600160a01b0316836001600160a01b03167fddf252ad1be2c89b69c2b068fc378daa952ba7f163c4a11628f55a4df523b3ef83604051610dd991815260200190565b60405180910390a3505050565b80356001600160a01b0381168114610dfc575f80fd5b919050565b5f805f805f60808688031215610e15575f80fd5b8535945060208601359350610e2c60408701610de6565b9250606086013567ffffffffffffffff80821115610e48575f80fd5b818801915088601f830112610e5b575f80fd5b813581811115610e69575f80fd5b896020828501011115610e7a575f80fd5b9699959850939650602001949392505050565b5f6020808352835180828501525f5b81811015610eb857858101830151858201604001528201610e9c565b505f604082860101526040601f19601f8301168501019250505092915050565b5f8060408385031215610ee9575f80fd5b610ef283610de6565b946020939093013593505050565b5f805f60608486031215610f12575f80fd5b610f1b84610de6565b9250610f2960208501610de6565b9150604084013590509250925092565b5f8060408385031215610f4a575f80fd5b610f5383610de6565b9150610f6160208401610de6565b90509250929050565b5f60208284031215610f7a575f80fd5b610f8382610de6565b9392505050565b5f60208284031215610f9a575f80fd5b81518015158114610f83575f80fd5b5f60208284031215610fb9575f80fd5b5051919050565b600181811c90821680610fd457607f821691505b602082108103610ff257634e487b7160e01b5f52602260045260245ffd5b50919050565b634e487b7160e01b5f52601160045260245ffd5b818103818111156105b0576105b0610ff8565b80820281158282048414176105b0576105b0610ff8565b5f8261105057634e487b7160e01b5f52601260045260245ffd5b500490565b808201808211156105b0576105b0610ff856fea264697066735822122024870eea4f31dbab2c5915efa924b8240ac0598b8d1afc2e4b19a0dd8136c9f264736f6c63430008150033",
  "immutableReferences": {},
  "source": "// SPDX-License-Identifier: MIT\npragma solidity ^0.8.0;\n\nimport \"../interfaces/IUniswapV2.sol\";\nimport \"@openzeppelin/contracts/token/ERC20/ERC20.sol\";\n\ncontract MockUniswapV2Pair is ERC20 {\n    address public token0;\n    address public token1;\n    uint112 private reserve0;\n    uint112 private reserve1;\n    uint32 private blockTimestampLast;\n\n    constructor() ERC20(\"Uniswap V2\", \"UNI-V2\") {}\n\n    function initialize(address _token0, address _token1) external {\n        token0 = _token0;\n        token1 = _token1;\n    }\n\n    function getReserves() external view returns (uint112, uint112, uint32) {\n        return (reserve0, reserve1, blockTimestampLast);\n    }\n\n    function mint(address to) external returns (uint liquidity) {\n        uint balance0 = IERC20(token0).balanceOf(address(this));\n        uint balance1 = IERC20(token1).balanceOf(address(this));\n        uint amount0 = balance0 - reserve0;\n        uint amount1 = balance1 - reserve1;\n        \n        liquidity = amount0; // Simplified\n        _mint(to, liquidity);\n        \n        reserve0 = uint112(balance0);\n        reserve1 = uint112(balance1);\n    }\n\n    function burn(address to) external returns (uint amount0, uint amount1) {\n        uint balance0 = IERC20(token0).balanceOf(address(this));\n        uint balance1 = IERC20(token1).balanceOf(address(this));\n        uint liquidity = balanceOf(address(this));\n\n        amount0 = (liquidity * balance0) / totalSupply();\n        amount1 = (liquidity * balance1) / totalSupply();\n        \n        _burn(address(this), liquidity);\n        \n        IERC20(token0).transfer(to, amount0);\n        IERC20(token1).transfer(to, amount1);\n        \n        reserve0 = uint112(IERC20(token0).balanceOf(address(this)));\n        reserve1 = uint112(IERC20(token1).balanceOf(address(this)));\n    }\n\n    function swap(uint amount0Out, uint amount1Out, address to, bytes calldata) external {\n        if (amount0Out > 0) IERC20(token0).transfer(to, amount0Out);\n        if (amount1Out > 0) IERC20(token1).transfer(to, amount1Out);\n        \n        reserve0 = uint112(IERC20(token0).balanceOf(address(this)));\n        reserve1 = uint112(IERC20(token1).balanceOf(address(this)));\n    }\n}\n\ncontract MockUniswapV2Factory {\n    mapping(address => mapping(address => address)) public getPair;\n    address[] public allPairs;\n\n    function createPair(address tokenA, address tokenB) external returns (address pair) {\n        MockUniswapV2Pair newPair = new MockUniswapV2Pair();\n        newPair.initialize(tokenA, tokenB);\n        pair = address(newPair);\n        getPair[tokenA][tokenB] = pair;\n        getPair[tokenB][tokenA] = pair;\n        allPairs.push(pair);\n    }\n}\n\ncontract MockUniswapV2Router02 {\n    address public factory;\n    address public WETH;\n\n    constructor(address _factory) {\n        factory = _factory;\n        WETH = address(0); \n    }\n\n    function addLiquidity(\n        address tokenA,\n        address tokenB,\n        uint amountADesired,\n        uint amountBDesired,\n        uint, uint, address to, uint\n    ) external returns (uint amountA, uint amountB, uint liquidity) {\n        address pair = MockUniswapV2Factory(factory).getPair(tokenA, tokenB);\n        if (pair == address(0)) {\n            pair = MockUniswapV2Factory(factory).createPair(tokenA, tokenB);\n        }\n        \n        IERC20(tokenA).transferFrom(msg.sender, pair, amountADesired);\n        IERC20(tokenB).transferFrom(msg.sender, pair, amountBDesired);\n        \n        liquidity = MockUniswapV2Pair(pair).mint(to);\n        amountA = amountADesired;\n        amountB = amountBDesired;\n    }\n\n    function removeLiquidity(\n        address tokenA,\n        address tokenB,\n        uint liquidity,\n        uint amountAMin,\n        uint amountBMin,\n        address to,\n        uint deadline\n    ) external returns (uint amountA, uint amountB) {\n        address pair = MockUniswapV2Factory(factory).getPair(tokenA, tokenB);\n        require(pair != address(0), \"Pair not found\");\n        \n        // Transfer LP from user to Pair\n        // The Pair.burn expects LP tokens to be in the Pair contract itself\n        IUniswapV2Pair(pair).transferFrom(msg.sender, pair, liquidity);\n        \n        // Burn\n        (amountA, amountB) = IUniswapV2Pair(pair).burn(to);\n        \n        require(amountA >= amountAMin, \"Insufficient A Amount\");\n        require(amountB >= amountBMin, \"Insufficient B Amount\");\n    }\n\n    function swapExactTokensForTokens(\n        uint amountIn,\n        uint,\n        address[] calldata path,\n        address to,\n        uint\n    ) external returns (uint[] memory amounts) {\n        address pair = MockUniswapV2Factory(factory).getPair(path[0], path[1]);\n        require(pair != address(0), \"Pair not found\");\n\n        // Transfer Input to Pair\n        IERC20(path[0]).transferFrom(msg.sender, pair, amountIn);\n        \n        // Simplified CPAMM Swap Logic (No Fee for Mock)\n        // y_out = (x_in * R_y) / (R_x + x_in)\n        \n        (uint112 r0, uint112 r1,) = MockUniswapV2Pair(pair).getReserves();\n        address t0 = MockUniswapV2Pair(pair).token0();\n        \n        (uint reserveIn, uint reserveOut) = (path[0] == t0) ? (uint(r0), uint(r1)) : (uint(r1), uint(r0));\n        \n        require(reserveIn > 0 && reserveOut > 0, \"Insufficient reserves\");\n\n        amounts = new uint[](2);\n        amounts[0] = amountIn;\n        amounts[1] = (amountIn * reserveOut) / (reserveIn + amountIn);\n        \n        (uint amount0Out, uint amount1Out) = (path[0] == t0) ? (uint(0), amounts[1]) : (amounts[1], uint(0));\n        \n        MockUniswapV2Pair(pair).swap(amount0Out, amount1Out, to, \"\");\n    }\n}\n",
  "sourcePath": "/Users/marcomaraglino/.gemini/antigravity/playground/drifting-intergalactic/MagenProtocol/contracts/mock/MockUniswapV2.sol",
  "compiler": {
    "name": "solc",
    "version": "0.8.21+commit.d9974bed.Emscripten.clang"
  },
  "schemaVersion": "3.4.16",
  "updatedAt": "2026-02-20T18:58:11.477Z",
  "devdoc": {
    "errors": {
      "ERC20InsufficientAllowance(address,uint256,uint256)": [
        {
          "details": "Indicates a failure with the `spender`s `allowance`. Used in transfers.",
          "params": {
            "allowance": "Amount of tokens a `spender` is allowed to operate with.",
            "needed": "Minimum amount required to perform a transfer.",
            "spender": "Address that may be allowed to operate on tokens without being their owner."
          }
        }
      ],
      "ERC20InsufficientBalance(address,uint256,uint256)": [
        {
          "details": "Indicates an error related to the current `balance` of a `sender`. Used in transfers.",
          "params": {
            "balance": "Current balance for the interacting account.",
            "needed": "Minimum amount required to perform a transfer.",
            "sender": "Address whose tokens are being transferred."
          }
        }
      ],
      "ERC20InvalidApprover(address)": [
        {
          "details": "Indicates a failure with the `approver` of a token to be approved. Used in approvals.",
          "params": {
            "approver": "Address initiating an approval operation."
          }
        }
      ],
      "ERC20InvalidReceiver(address)": [
        {
          "details": "Indicates a failure with the token `receiver`. Used in transfers.",
          "params": {
            "receiver": "Address to which tokens are being transferred."
          }
        }
      ],
      "ERC20InvalidSender(address)": [
        {
          "details": "Indicates a failure with the token `sender`. Used in transfers.",
          "params": {
            "sender": "Address whose tokens are being transferred."
          }
        }
      ],
      "ERC20InvalidSpender(address)": [
        {
          "details": "Indicates a failure with the `spender` to be approved. Used in approvals.",
          "params": {
            "spender": "Address that may be allowed to operate on tokens without being their owner."
          }
        }
      ]
    },
    "events": {
      "Approval(address,address,uint256)": {
        "details": "Emitted when the allowance of a `spender` for an `owner` is set by a call to {approve}. `value` is the new allowance."
      },
      "Transfer(address,address,uint256)": {
        "details": "Emitted when `value` tokens are moved from one account (`from`) to another (`to`). Note that `value` may be zero."
      }
    },
    "kind": "dev",
    "methods": {
      "allowance(address,address)": {
        "details": "Returns the remaining number of tokens that `spender` will be allowed to spend on behalf of `owner` through {transferFrom}. This is zero by default. This value changes when {approve} or {transferFrom} are called."
      },
      "approve(address,uint256)": {
        "details": "See {IERC20-approve}. NOTE: If `value` is the maximum `uint256`, the allowance is not updated on `transferFrom`. This is semantically equivalent to an infinite approval. Requirements: - `spender` cannot be the zero address."
      },
      "balanceOf(address)": {
        "details": "Returns the value of tokens owned by `account`."
      },
      "decimals()": {
        "details": "Returns the number of decimals used to get its user representation. For example, if `decimals` equals `2`, a balance of `505` tokens should be displayed to a user as `5.05` (`505 / 10 ** 2`). Tokens usually opt for a value of 18, imitating the relationship between Ether and Wei. This is the default value returned by this function, unless it's overridden. NOTE: This information is only used for _display_ purposes: it in no way affects any of the arithmetic of the contract, including {IERC20-balanceOf} and {IERC20-transfer}."
      },
      "name()": {
        "details": "Returns the name of the token."
      },
      "symbol()": {
        "details": "Returns the symbol of the token, usually a shorter version of the name."
      },
      "totalSupply()": {
        "details": "Returns the value of tokens in existence."
      },
      "transfer(address,uint256)": {
        "details": "See {IERC20-transfer}. Requirements: - `to` cannot be the zero address. - the caller must have a balance of at least `value`."
      },
      "transferFrom(address,address,uint256)": {
        "details": "See {IERC20-transferFrom}. Skips emitting an {Approval} event indicating an allowance update. This is not required by the ERC. See {xref-ERC20-_approve-address-address-uint256-bool-}[_approve]. NOTE: Does not update the allowance if the current allowance is the maximum `uint256`. Requirements: - `from` and `to` cannot be the zero address. - `from` must have a balance of at least `value`. - the caller must have allowance for ``from``'s tokens of at least `value`."
      }
    },
    "version": 1
  },
  "userdoc": {
    "kind": "user",
    "methods": {},
    "version": 1
  }
}