{
  "contractName": "MockUniswapV2Router02",
  "abi": [
    {
      "inputs": [
        {
          "internalType": "address",
          "name": "_factory",
          "type": "address"
        }
      ],
      "stateMutability": "nonpayable",
      "type": "constructor"
    },
    {
      "inputs": [],
      "name": "WETH",
      "outputs": [
        {
          "internalType": "address",
          "name": "",
          "type": "address"
        }
      ],
      "stateMutability": "view",
      "type": "function"
    },
    {
      "inputs": [],
      "name": "factory",
      "outputs": [
        {
          "internalType": "address",
          "name": "",
          "type": "address"
        }
      ],
      "stateMutability": "view",
      "type": "function"
    },
    {
      "inputs": [
        {
          "internalType": "address",
          "name": "tokenA",
          "type": "address"
        },
        {
          "internalType": "address",
          "name": "tokenB",
          "type": "address"
        },
        {
          "internalType": "uint256",
          "name": "amountADesired",
          "type": "uint256"
        },
        {
          "internalType": "uint256",
          "name": "amountBDesired",
          "type": "uint256"
        },
        {
          "internalType": "uint256",
          "name": "",
          "type": "uint256"
        },
        {
          "internalType": "uint256",
          "name": "",
          "type": "uint256"
        },
        {
          "internalType": "address",
          "name": "to",
          "type": "address"
        },
        {
          "internalType": "uint256",
          "name": "",
          "type": "uint256"
        }
      ],
      "name": "addLiquidity",
      "outputs": [
        {
          "internalType": "uint256",
          "name": "amountA",
          "type": "uint256"
        },
        {
          "internalType": "uint256",
          "name": "amountB",
          "type": "uint256"
        },
        {
          "internalType": "uint256",
          "name": "liquidity",
          "type": "uint256"
        }
      ],
      "stateMutability": "nonpayable",
      "type": "function"
    },
    {
      "inputs": [
        {
          "internalType": "address",
          "name": "tokenA",
          "type": "address"
        },
        {
          "internalType": "address",
          "name": "tokenB",
          "type": "address"
        },
        {
          "internalType": "uint256",
          "name": "liquidity",
          "type": "uint256"
        },
        {
          "internalType": "uint256",
          "name": "amountAMin",
          "type": "uint256"
        },
        {
          "internalType": "uint256",
          "name": "amountBMin",
          "type": "uint256"
        },
        {
          "internalType": "address",
          "name": "to",
          "type": "address"
        },
        {
          "internalType": "uint256",
          "name": "deadline",
          "type": "uint256"
        }
      ],
      "name": "removeLiquidity",
      "outputs": [
        {
          "internalType": "uint256",
          "name": "amountA",
          "type": "uint256"
        },
        {
          "internalType": "uint256",
          "name": "amountB",
          "type": "uint256"
        }
      ],
      "stateMutability": "nonpayable",
      "type": "function"
    },
    {
      "inputs": [
        {
          "internalType": "uint256",
          "name": "amountIn",
          "type": "uint256"
        },
        {
          "internalType": "uint256",
          "name": "",
          "type": "uint256"
        },
        {
          "internalType": "address[]",
          "name": "path",
          "type": "address[]"
        },
        {
          "internalType": "address",
          "name": "to",
          "type": "address"
        },
        {
          "internalType": "uint256",
          "name": "",
          "type": "uint256"
        }
      ],
      "name": "swapExactTokensForTokens",
      "outputs": [
        {
          "internalType": "uint256[]",
          "name": "amounts",
          "type": "uint256[]"
        }
      ],
      "stateMutability": "nonpayable",
      "type": "function"
    }
  ],
  "bytecode": "0x608060405234801561000f575f80fd5b50604051610eba380380610eba83398101604081905261002e91610059565b5f80546001600160a01b039092166001600160a01b0319928316179055600180549091169055610086565b5f60208284031215610069575f80fd5b81516001600160a01b038116811461007f575f80fd5b9392505050565b610e27806100935f395ff3fe608060405234801561000f575f80fd5b5060043610610055575f3560e01c806338ed173914610059578063ad5c464814610082578063baa2abde146100ad578063c45a0155146100d5578063e8e33700146100e7575b5f80fd5b61006c610067366004610a9e565b610115565b6040516100799190610b38565b60405180910390f35b600154610095906001600160a01b031681565b6040516001600160a01b039091168152602001610079565b6100c06100bb366004610b7b565b6105dc565b60408051928352602083019190915201610079565b5f54610095906001600160a01b031681565b6100fa6100f5366004610be8565b610817565b60408051938452602084019290925290820152606001610079565b5f8054606091906001600160a01b031663e6a439058787848161013a5761013a610c5f565b905060200201602081019061014f9190610c73565b8888600181811061016257610162610c5f565b90506020020160208101906101779190610c73565b6040516001600160e01b031960e085901b1681526001600160a01b03928316600482015291166024820152604401602060405180830381865afa1580156101c0573d5f803e3d5ffd5b505050506040513d601f19601f820116820180604052508101906101e49190610c95565b90506001600160a01b0381166102325760405162461bcd60e51b815260206004820152600e60248201526d14185a5c881b9bdd08199bdd5b9960921b60448201526064015b60405180910390fd5b85855f81811061024457610244610c5f565b90506020020160208101906102599190610c73565b6001600160a01b03166323b872dd33838b6040518463ffffffff1660e01b815260040161028893929190610cb0565b6020604051808303815f875af11580156102a4573d5f803e3d5ffd5b505050506040513d601f19601f820116820180604052508101906102c89190610cd4565b505f80826001600160a01b0316630902f1ac6040518163ffffffff1660e01b8152600401606060405180830381865afa158015610307573d5f803e3d5ffd5b505050506040513d601f19601f8201168201806040525081019061032b9190610d09565b50915091505f836001600160a01b0316630dfe16816040518163ffffffff1660e01b8152600401602060405180830381865afa15801561036d573d5f803e3d5ffd5b505050506040513d601f19601f820116820180604052508101906103919190610c95565b90505f80826001600160a01b03168b8b5f8181106103b1576103b1610c5f565b90506020020160208101906103c69190610c73565b6001600160a01b0316146103ed57836001600160701b0316856001600160701b0316610402565b846001600160701b0316846001600160701b03165b915091505f8211801561041457505f81115b6104585760405162461bcd60e51b8152602060048201526015602482015274496e73756666696369656e7420726573657276657360581b6044820152606401610229565b60408051600280825260608201835290916020830190803683370190505096508c875f8151811061048b5761048b610c5f565b60209081029190910101526104a08d83610d69565b6104aa828f610d82565b6104b49190610d99565b876001815181106104c7576104c7610c5f565b6020026020010181815250505f80846001600160a01b03168d8d5f8181106104f1576104f1610c5f565b90506020020160208101906105069190610c73565b6001600160a01b031614610535578860018151811061052757610527610c5f565b60200260200101515f610552565b5f8960018151811061054957610549610c5f565b60200260200101515b60405163022c0d9f60e01b815260048101839052602481018290526001600160a01b038e81166044830152608060648301525f60848301529294509092509089169063022c0d9f9060a4015f604051808303815f87803b1580156105b4575f80fd5b505af11580156105c6573d5f803e3d5ffd5b5050505050505050505050509695505050505050565b5f805460405163e6a4390560e01b81526001600160a01b038a8116600483015289811660248301528392839291169063e6a4390590604401602060405180830381865afa15801561062f573d5f803e3d5ffd5b505050506040513d601f19601f820116820180604052508101906106539190610c95565b90506001600160a01b03811661069c5760405162461bcd60e51b815260206004820152600e60248201526d14185a5c881b9bdd08199bdd5b9960921b6044820152606401610229565b6040516323b872dd60e01b81526001600160a01b038216906323b872dd906106cc90339085908d90600401610cb0565b6020604051808303815f875af11580156106e8573d5f803e3d5ffd5b505050506040513d601f19601f8201168201806040525081019061070c9190610cd4565b5060405163226bf2d160e21b81526001600160a01b0386811660048301528216906389afcb449060240160408051808303815f875af1158015610751573d5f803e3d5ffd5b505050506040513d601f19601f820116820180604052508101906107759190610db8565b9093509150868310156107c25760405162461bcd60e51b8152602060048201526015602482015274125b9cdd59999a58da595b9d081048105b5bdd5b9d605a1b6044820152606401610229565b8582101561080a5760405162461bcd60e51b8152602060048201526015602482015274125b9cdd59999a58da595b9d081088105b5bdd5b9d605a1b6044820152606401610229565b5097509795505050505050565b5f805460405163e6a4390560e01b81526001600160a01b038b811660048301528a811660248301528392839283929091169063e6a4390590604401602060405180830381865afa15801561086d573d5f803e3d5ffd5b505050506040513d601f19601f820116820180604052508101906108919190610c95565b90506001600160a01b038116610918575f546040516364e329cb60e11b81526001600160a01b038e811660048301528d811660248301529091169063c9c65396906044016020604051808303815f875af11580156108f1573d5f803e3d5ffd5b505050506040513d601f19601f820116820180604052508101906109159190610c95565b90505b6040516323b872dd60e01b81526001600160a01b038d16906323b872dd9061094890339085908f90600401610cb0565b6020604051808303815f875af1158015610964573d5f803e3d5ffd5b505050506040513d601f19601f820116820180604052508101906109889190610cd4565b506040516323b872dd60e01b81526001600160a01b038c16906323b872dd906109b990339085908e90600401610cb0565b6020604051808303815f875af11580156109d5573d5f803e3d5ffd5b505050506040513d601f19601f820116820180604052508101906109f99190610cd4565b506040516335313c2160e11b81526001600160a01b038781166004830152821690636a627842906024016020604051808303815f875af1158015610a3f573d5f803e3d5ffd5b505050506040513d601f19601f82011682018060405250810190610a639190610dda565b999c989b5098995096975050505050505050565b6001600160a01b0381168114610a8b575f80fd5b50565b8035610a9981610a77565b919050565b5f805f805f8060a08789031215610ab3575f80fd5b8635955060208701359450604087013567ffffffffffffffff80821115610ad8575f80fd5b818901915089601f830112610aeb575f80fd5b813581811115610af9575f80fd5b8a60208260051b8501011115610b0d575f80fd5b602083019650809550505050610b2560608801610a8e565b9150608087013590509295509295509295565b602080825282518282018190525f9190848201906040850190845b81811015610b6f57835183529284019291840191600101610b53565b50909695505050505050565b5f805f805f805f60e0888a031215610b91575f80fd5b8735610b9c81610a77565b96506020880135610bac81610a77565b955060408801359450606088013593506080880135925060a0880135610bd181610a77565b8092505060c0880135905092959891949750929550565b5f805f805f805f80610100898b031215610c00575f80fd5b8835610c0b81610a77565b97506020890135610c1b81610a77565b965060408901359550606089013594506080890135935060a0890135925060c0890135610c4781610a77565b8092505060e089013590509295985092959890939650565b634e487b7160e01b5f52603260045260245ffd5b5f60208284031215610c83575f80fd5b8135610c8e81610a77565b9392505050565b5f60208284031215610ca5575f80fd5b8151610c8e81610a77565b6001600160a01b039384168152919092166020820152604081019190915260600190565b5f60208284031215610ce4575f80fd5b81518015158114610c8e575f80fd5b80516001600160701b0381168114610a99575f80fd5b5f805f60608486031215610d1b575f80fd5b610d2484610cf3565b9250610d3260208501610cf3565b9150604084015163ffffffff81168114610d4a575f80fd5b809150509250925092565b634e487b7160e01b5f52601160045260245ffd5b80820180821115610d7c57610d7c610d55565b92915050565b8082028115828204841417610d7c57610d7c610d55565b5f82610db357634e487b7160e01b5f52601260045260245ffd5b500490565b5f8060408385031215610dc9575f80fd5b505080516020909101519092909150565b5f60208284031215610dea575f80fd5b505191905056fea2646970667358221220d0aa4cefe0e6f24520d502b46cb91d40024964071086cefca2f14e247f3b1d5464736f6c63430008150033",
  "immutableReferences": {},
  "source": "// SPDX-License-Identifier: MIT\r\npragma solidity ^0.8.0;\r\n\r\nimport \"../interfaces/IUniswapV2.sol\";\r\nimport \"@openzeppelin/contracts/token/ERC20/ERC20.sol\";\r\n\r\ncontract MockUniswapV2Pair is ERC20 {\r\n    address public token0;\r\n    address public token1;\r\n    uint112 private reserve0;\r\n    uint112 private reserve1;\r\n    uint32 private blockTimestampLast;\r\n\r\n    constructor() ERC20(\"Uniswap V2\", \"UNI-V2\") {}\r\n\r\n    function initialize(address _token0, address _token1) external {\r\n        token0 = _token0;\r\n        token1 = _token1;\r\n    }\r\n\r\n    function getReserves() external view returns (uint112, uint112, uint32) {\r\n        return (reserve0, reserve1, blockTimestampLast);\r\n    }\r\n\r\n    function mint(address to) external returns (uint liquidity) {\r\n        uint balance0 = IERC20(token0).balanceOf(address(this));\r\n        uint balance1 = IERC20(token1).balanceOf(address(this));\r\n        uint amount0 = balance0 - reserve0;\r\n        uint amount1 = balance1 - reserve1;\r\n        \r\n        liquidity = amount0; // Simplified\r\n        _mint(to, liquidity);\r\n        \r\n        reserve0 = uint112(balance0);\r\n        reserve1 = uint112(balance1);\r\n    }\r\n\r\n    function burn(address to) external returns (uint amount0, uint amount1) {\r\n        uint balance0 = IERC20(token0).balanceOf(address(this));\r\n        uint balance1 = IERC20(token1).balanceOf(address(this));\r\n        uint liquidity = balanceOf(address(this));\r\n\r\n        amount0 = (liquidity * balance0) / totalSupply();\r\n        amount1 = (liquidity * balance1) / totalSupply();\r\n        \r\n        _burn(address(this), liquidity);\r\n        \r\n        IERC20(token0).transfer(to, amount0);\r\n        IERC20(token1).transfer(to, amount1);\r\n        \r\n        reserve0 = uint112(IERC20(token0).balanceOf(address(this)));\r\n        reserve1 = uint112(IERC20(token1).balanceOf(address(this)));\r\n    }\r\n\r\n    function swap(uint amount0Out, uint amount1Out, address to, bytes calldata) external {\r\n        if (amount0Out > 0) IERC20(token0).transfer(to, amount0Out);\r\n        if (amount1Out > 0) IERC20(token1).transfer(to, amount1Out);\r\n        \r\n        reserve0 = uint112(IERC20(token0).balanceOf(address(this)));\r\n        reserve1 = uint112(IERC20(token1).balanceOf(address(this)));\r\n    }\r\n}\r\n\r\ncontract MockUniswapV2Factory {\r\n    mapping(address => mapping(address => address)) public getPair;\r\n    address[] public allPairs;\r\n\r\n    function createPair(address tokenA, address tokenB) external returns (address pair) {\r\n        MockUniswapV2Pair newPair = new MockUniswapV2Pair();\r\n        newPair.initialize(tokenA, tokenB);\r\n        pair = address(newPair);\r\n        getPair[tokenA][tokenB] = pair;\r\n        getPair[tokenB][tokenA] = pair;\r\n        allPairs.push(pair);\r\n    }\r\n}\r\n\r\ncontract MockUniswapV2Router02 {\r\n    address public factory;\r\n    address public WETH;\r\n\r\n    constructor(address _factory) {\r\n        factory = _factory;\r\n        WETH = address(0); \r\n    }\r\n\r\n    function addLiquidity(\r\n        address tokenA,\r\n        address tokenB,\r\n        uint amountADesired,\r\n        uint amountBDesired,\r\n        uint, uint, address to, uint\r\n    ) external returns (uint amountA, uint amountB, uint liquidity) {\r\n        address pair = MockUniswapV2Factory(factory).getPair(tokenA, tokenB);\r\n        if (pair == address(0)) {\r\n            pair = MockUniswapV2Factory(factory).createPair(tokenA, tokenB);\r\n        }\r\n        \r\n        IERC20(tokenA).transferFrom(msg.sender, pair, amountADesired);\r\n        IERC20(tokenB).transferFrom(msg.sender, pair, amountBDesired);\r\n        \r\n        liquidity = MockUniswapV2Pair(pair).mint(to);\r\n        amountA = amountADesired;\r\n        amountB = amountBDesired;\r\n    }\r\n\r\n    function removeLiquidity(\r\n        address tokenA,\r\n        address tokenB,\r\n        uint liquidity,\r\n        uint amountAMin,\r\n        uint amountBMin,\r\n        address to,\r\n        uint deadline\r\n    ) external returns (uint amountA, uint amountB) {\r\n        address pair = MockUniswapV2Factory(factory).getPair(tokenA, tokenB);\r\n        require(pair != address(0), \"Pair not found\");\r\n        \r\n        // Transfer LP from user to Pair\r\n        // The Pair.burn expects LP tokens to be in the Pair contract itself\r\n        IUniswapV2Pair(pair).transferFrom(msg.sender, pair, liquidity);\r\n        \r\n        // Burn\r\n        (amountA, amountB) = IUniswapV2Pair(pair).burn(to);\r\n        \r\n        require(amountA >= amountAMin, \"Insufficient A Amount\");\r\n        require(amountB >= amountBMin, \"Insufficient B Amount\");\r\n    }\r\n\r\n    function swapExactTokensForTokens(\r\n        uint amountIn,\r\n        uint,\r\n        address[] calldata path,\r\n        address to,\r\n        uint\r\n    ) external returns (uint[] memory amounts) {\r\n        address pair = MockUniswapV2Factory(factory).getPair(path[0], path[1]);\r\n        require(pair != address(0), \"Pair not found\");\r\n\r\n        // Transfer Input to Pair\r\n        IERC20(path[0]).transferFrom(msg.sender, pair, amountIn);\r\n        \r\n        // Simplified CPAMM Swap Logic (No Fee for Mock)\r\n        // y_out = (x_in * R_y) / (R_x + x_in)\r\n        \r\n        (uint112 r0, uint112 r1,) = MockUniswapV2Pair(pair).getReserves();\r\n        address t0 = MockUniswapV2Pair(pair).token0();\r\n        \r\n        (uint reserveIn, uint reserveOut) = (path[0] == t0) ? (uint(r0), uint(r1)) : (uint(r1), uint(r0));\r\n        \r\n        require(reserveIn > 0 && reserveOut > 0, \"Insufficient reserves\");\r\n\r\n        amounts = new uint[](2);\r\n        amounts[0] = amountIn;\r\n        amounts[1] = (amountIn * reserveOut) / (reserveIn + amountIn);\r\n        \r\n        (uint amount0Out, uint amount1Out) = (path[0] == t0) ? (uint(0), amounts[1]) : (amounts[1], uint(0));\r\n        \r\n        MockUniswapV2Pair(pair).swap(amount0Out, amount1Out, to, \"\");\r\n    }\r\n}\r\n",
  "sourcePath": "C:\\Users\\hanti\\Desktop\\Magen-Protocol\\contracts\\mock\\MockUniswapV2.sol",
  "compiler": {
    "name": "solc",
    "version": "0.8.21+commit.d9974bed.Emscripten.clang"
  },
  "schemaVersion": "3.4.16",
  "updatedAt": "2026-02-10T02:35:39.565Z",
  "networkType": "ethereum",
  "devdoc": {
    "kind": "dev",
    "methods": {},
    "version": 1
  },
  "userdoc": {
    "kind": "user",
    "methods": {},
    "version": 1
  }
}